{
    "_format": "hh-sol-artifact-1",
    "contractName": "TransactionRecord",
    "sourceName": "contracts/TransactionRecord.sol",
    "abi": [
        {
            "anonymous": false,
            "inputs": [
                {
                    "indexed": true,
                    "internalType": "address",
                    "name": "from",
                    "type": "address"
                },
                {
                    "indexed": true,
                    "internalType": "address",
                    "name": "to",
                    "type": "address"
                },
                {
                    "indexed": false,
                    "internalType": "uint256",
                    "name": "amount",
                    "type": "uint256"
                },
                {
                    "indexed": false,
                    "internalType": "string",
                    "name": "message",
                    "type": "string"
                },
                {
                    "indexed": false,
                    "internalType": "uint256",
                    "name": "timestamp",
                    "type": "uint256"
                },
                {
                    "indexed": false,
                    "internalType": "string",
                    "name": "keyword",
                    "type": "string"
                }
            ],
            "name": "Transfer",
            "type": "event"
        },
        {
            "inputs": [
                {
                    "internalType": "address payable",
                    "name": "_receiver",
                    "type": "address"
                },
                {
                    "internalType": "uint256",
                    "name": "_amount",
                    "type": "uint256"
                },
                {
                    "internalType": "string",
                    "name": "_message",
                    "type": "string"
                },
                {
                    "internalType": "string",
                    "name": "_keyword",
                    "type": "string"
                }
            ],
            "name": "addTransfer",
            "outputs": [],
            "stateMutability": "nonpayable",
            "type": "function"
        },
        {
            "inputs": [],
            "name": "getAllTransfers",
            "outputs": [
                {
                    "components": [
                        {
                            "internalType": "address",
                            "name": "sender",
                            "type": "address"
                        },
                        {
                            "internalType": "address",
                            "name": "receiver",
                            "type": "address"
                        },
                        {
                            "internalType": "uint256",
                            "name": "amount",
                            "type": "uint256"
                        },
                        {
                            "internalType": "string",
                            "name": "message",
                            "type": "string"
                        },
                        {
                            "internalType": "uint256",
                            "name": "timestamp",
                            "type": "uint256"
                        },
                        {
                            "internalType": "string",
                            "name": "keyword",
                            "type": "string"
                        }
                    ],
                    "internalType": "struct TransactionRecord.Transaction[]",
                    "name": "",
                    "type": "tuple[]"
                }
            ],
            "stateMutability": "view",
            "type": "function"
        },
        {
            "inputs": [],
            "name": "getTransferCount",
            "outputs": [
                {
                    "internalType": "uint256",
                    "name": "",
                    "type": "uint256"
                }
            ],
            "stateMutability": "view",
            "type": "function"
        },
        {
            "inputs": [],
            "name": "transactionCount",
            "outputs": [
                {
                    "internalType": "uint256",
                    "name": "",
                    "type": "uint256"
                }
            ],
            "stateMutability": "view",
            "type": "function"
        }
    ],
    "bytecode": "0x608060405234801561001057600080fd5b50610bed806100206000396000f3fe608060405234801561001057600080fd5b506004361061004c5760003560e01c8063040e55f5146100515780630aa15dd01461006f57806354b4aa4a1461008b578063b77bf600146100a9575b600080fd5b6100596100c7565b60405161006691906108ab565b60405180910390f35b6100896004803603810190610084919061063e565b6100d0565b005b6100936102c0565b6040516100a09190610889565b60405180910390f35b6100b1610503565b6040516100be91906108ab565b60405180910390f35b60008054905090565b60006040518060c001604052803373ffffffffffffffffffffffffffffffffffffffff1681526020018673ffffffffffffffffffffffffffffffffffffffff168152602001858152602001848152602001428152602001838152509050600181908060018154018082558091505060019003906000526020600020906006020160009091909190915060008201518160000160006101000a81548173ffffffffffffffffffffffffffffffffffffffff021916908373ffffffffffffffffffffffffffffffffffffffff16021790555060208201518160010160006101000a81548173ffffffffffffffffffffffffffffffffffffffff021916908373ffffffffffffffffffffffffffffffffffffffff16021790555060408201518160020155606082015181600301908051906020019061020d929190610509565b506080820151816004015560a0820151816005019080519060200190610234929190610509565b50505060008081548092919061024990610aa2565b91905055508473ffffffffffffffffffffffffffffffffffffffff163373ffffffffffffffffffffffffffffffffffffffff167f416cfa4330a4565f45c2fd2dd4826a83a37443aba2ce6f79477c7355afac35fa868642876040516102b194939291906108c6565b60405180910390a35050505050565b60606001805480602002602001604051908101604052809291908181526020016000905b828210156104fa57838290600052602060002090600602016040518060c00160405290816000820160009054906101000a900473ffffffffffffffffffffffffffffffffffffffff1673ffffffffffffffffffffffffffffffffffffffff1673ffffffffffffffffffffffffffffffffffffffff1681526020016001820160009054906101000a900473ffffffffffffffffffffffffffffffffffffffff1673ffffffffffffffffffffffffffffffffffffffff1673ffffffffffffffffffffffffffffffffffffffff168152602001600282015481526020016003820180546103cd90610a70565b80601f01602080910402602001604051908101604052809291908181526020018280546103f990610a70565b80156104465780601f1061041b57610100808354040283529160200191610446565b820191906000526020600020905b81548152906001019060200180831161042957829003601f168201915b505050505081526020016004820154815260200160058201805461046990610a70565b80601f016020809104026020016040519081016040528092919081815260200182805461049590610a70565b80156104e25780601f106104b7576101008083540402835291602001916104e2565b820191906000526020600020905b8154815290600101906020018083116104c557829003601f168201915b505050505081525050815260200190600101906102e4565b50505050905090565b60005481565b82805461051590610a70565b90600052602060002090601f016020900481019282610537576000855561057e565b82601f1061055057805160ff191683800117855561057e565b8280016001018555821561057e579182015b8281111561057d578251825591602001919060010190610562565b5b50905061058b919061058f565b5090565b5b808211156105a8576000816000905550600101610590565b5090565b60006105bf6105ba8461094a565b610919565b9050828152602081018484840111156105d757600080fd5b6105e2848285610a2e565b509392505050565b6000813590506105f981610b89565b92915050565b600082601f83011261061057600080fd5b81356106208482602086016105ac565b91505092915050565b60008135905061063881610ba0565b92915050565b6000806000806080858703121561065457600080fd5b6000610662878288016105ea565b945050602061067387828801610629565b935050604085013567ffffffffffffffff81111561069057600080fd5b61069c878288016105ff565b925050606085013567ffffffffffffffff8111156106b957600080fd5b6106c5878288016105ff565b91505092959194509250565b60006106dd83836107db565b905092915050565b6106ee816109e0565b82525050565b60006106ff8261098a565b61070981856109ad565b93508360208202850161071b8561097a565b8060005b85811015610757578484038952815161073885826106d1565b9450610743836109a0565b925060208a0199505060018101905061071f565b50829750879550505050505092915050565b600061077482610995565b61077e81856109be565b935061078e818560208601610a3d565b61079781610b78565b840191505092915050565b60006107ad82610995565b6107b781856109cf565b93506107c7818560208601610a3d565b6107d081610b78565b840191505092915050565b600060c0830160008301516107f360008601826106e5565b50602083015161080660208601826106e5565b506040830151610819604086018261086b565b50606083015184820360608601526108318282610769565b9150506080830151610846608086018261086b565b5060a083015184820360a086015261085e8282610769565b9150508091505092915050565b61087481610a24565b82525050565b61088381610a24565b82525050565b600060208201905081810360008301526108a381846106f4565b905092915050565b60006020820190506108c0600083018461087a565b92915050565b60006080820190506108db600083018761087a565b81810360208301526108ed81866107a2565b90506108fc604083018561087a565b818103606083015261090e81846107a2565b905095945050505050565b6000604051905081810181811067ffffffffffffffff821117156109405761093f610b49565b5b8060405250919050565b600067ffffffffffffffff82111561096557610964610b49565b5b601f19601f8301169050602081019050919050565b6000819050602082019050919050565b600081519050919050565b600081519050919050565b6000602082019050919050565b600082825260208201905092915050565b600082825260208201905092915050565b600082825260208201905092915050565b60006109eb82610a04565b9050919050565b60006109fd82610a04565b9050919050565b600073ffffffffffffffffffffffffffffffffffffffff82169050919050565b6000819050919050565b82818337600083830152505050565b60005b83811015610a5b578082015181840152602081019050610a40565b83811115610a6a576000848401525b50505050565b60006002820490506001821680610a8857607f821691505b60208210811415610a9c57610a9b610b1a565b5b50919050565b6000610aad82610a24565b91507fffffffffffffffffffffffffffffffffffffffffffffffffffffffffffffffff821415610ae057610adf610aeb565b5b600182019050919050565b7f4e487b7100000000000000000000000000000000000000000000000000000000600052601160045260246000fd5b7f4e487b7100000000000000000000000000000000000000000000000000000000600052602260045260246000fd5b7f4e487b7100000000000000000000000000000000000000000000000000000000600052604160045260246000fd5b6000601f19601f8301169050919050565b610b92816109f2565b8114610b9d57600080fd5b50565b610ba981610a24565b8114610bb457600080fd5b5056fea2646970667358221220e5446cd681094f59f8c0415f9947a5689eb2acce6306333b344b79418f00dad564736f6c63430008000033",
    "linkReferences": {},
    "deployedLinkReferences": {}
}